:100000000C945E000C9486000C9486000C94860080
:100010000C9486000C9486000C9486000C94860048
:100020000C9486000C9486000C9486000C9449096C
:100030000C9486000C9486000C9486000C94860028
:100040000C94FF080C9486000C94CD080C94A7081F
:100050000C9486000C9486000C9486000C94860008
:100060000C9486000C948600000000080002010039
:100070000003040700000000000000000000000072
:10008000250028002B0000000000240027002A0083
:10009000040404040404040402020202020203032E
:1000A0000303030301020408102040800102040836
:1000B0001020010204081020050ADD0B11241FBEC8
:1000C000CFEFD8E0DEBFCDBF11E0A0E0B1E0E2E4C9
:1000D000FEE102C005900D92A637B107D9F722E0E4
:1000E000A6E7B1E001C01D92AD3AB207E1F710E01A
:1000F000CDE5D0E004C02197FE010E94080DCC356B
:10010000D107C9F70E94DD0A0C94140F0C9400006B
:100110008F929F92AF92BF92FF920F931F93CF93B4
:10012000DF93F090A6022BE02F1508F44CC020912D
:10013000A80208E512E0021B110927FD1395000F24
:10014000111F000F111F2091A702C8E8D0E0C21BA9
:10015000D10927FDD395CC0FDD1FCC0FDD1F4E013C
:100160000D2E000CAA08BB089801012E000C440BB0
:10017000550B281939094A095B09DC010E948C0CCE
:1001800024EB30E040E050E00E94620C820E931EAF
:10019000A41EB51E8C169D062CF0E8018016910653
:1001A0000CF4E4012297CC0FDD1F2FB7F8948F2DAC
:1001B00090E0FC01EE0FFF1FE80FF91FE35DFD4F1C
:1001C000D283C1832FBFDF91CF911F910F91FF90F9
:1001D000BF90AF909F908F9008950895AF92BF9277
:1001E000CF92DF92EF92FF920F931F93CF93DF9303
:1001F0006C017B018B01040F151FEB015E01AE1832
:10020000BF08C017D10759F06991D601ED91FC9153
:100210000190F081E02DC6010995892B79F7C50180
:10022000DF91CF911F910F91FF90EF90DF90CF90D2
:10023000BF90AF900895CF93DF93FC014481558127
:100240006081718180E991E00E94EE00EC0142E062
:1002500050E068E171E080E991E00E94EE008C0FCF
:100260009D1FDF91CF910895FC01538D448D252F63
:1002700030E0842F90E0821B930B541710F0CF9640
:10028000089501970895FC01918D828D981761F072
:10029000A28DAE0FBF2FB11D5D968C91928D9F5F89
:1002A0009F73928F90E008958FEF9FEF08952FB77F
:1002B000F89480918C0190918D01A0918E01B09164
:1002C0008F012FBF8093980190939901A0939A0179
:1002D000B0939B0180E991E00E94430197FF26C003
:1002E0002FB7F89480918C0190918D01A0918E018F
:1002F000B0918F012FBF4091980150919901609169
:100300009A0170919B01841B950BA60BB70B409132
:100310009401509195016091960170919701841715
:100320009507A607B707B0F28FEF9FEF0895FC017E
:10033000918D828D981731F0828DE80FF11D858D9A
:1003400090E008958FEF9FEF0895FC01918D228D2D
:10035000892F90E0805C9F4F821B91098F739927B2
:10036000089580E991E00E94A50121E0892B09F41C
:1003700020E0822F089580E090E0892B29F00E94F0
:10038000B10181110C9400000895FC01A48DA80F07
:10039000B92FB11DA35ABF4F2C91848D90E00196C7
:1003A0008F739927848FA689B7892C93A089B189E7
:1003B0008C91837080648C93938D848D981306C088
:1003C0000288F389E02D80818F7D80830895EF92EC
:1003D000FF920F931F93CF93DF93EC0181E0888FFF
:1003E0009B8D8C8D98131AC0E889F989808185FFCF
:1003F00015C09FB7F894EE89FF896083E889F98971
:1004000080818370806480839FBF81E090E0DF9172
:10041000CF911F910F91FF90EF900895F62E0B8DC5
:1004200010E00F5F1F4F0F731127E02E8C8D8E1180
:100430000CC00FB607FCFACFE889F989808185FFE7
:10044000F5CFCE010E94C501F1CFEB8DEC0FFD2F52
:10045000F11DE35AFF4FF0829FB7F8940B8FEA89A2
:10046000FB8980818062CFCFCF93DF93EC01888DB1
:100470008823B9F0AA89BB89E889F9898C9185FD1F
:1004800003C0808186FD0DC00FB607FCF7CF8C91AD
:1004900085FFF2CF808185FFEDCFCE010E94C5019F
:1004A000E9CFDF91CF91089590E0FC01E859FF4F2B
:1004B0002491FC01EC55FF4F3491FC01E057FF4FB4
:1004C000E491EE23C9F0222339F0233001F1A8F49E
:1004D000213019F1223029F1F0E0EE0FFF1FE4582E
:1004E000FF4FA591B4918FB7F894EC91611126C09C
:1004F00030953E233C938FBF08952730A9F02830D4
:10050000C9F0243049F7809180008F7D03C080912D
:1005100080008F7780938000DFCF84B58F7784BD94
:10052000DBCF84B58F7DFBCF8091B0008F77809338
:10053000B000D2CF8091B0008F7DF9CF3E2BDACFC3
:100540008E50806480937C0080917A0080648093D8
:100550007A0080917A0086FDFCCF8091780090919E
:10056000790008953FB7F8948091880190918901AE
:10057000A0918A01B0918B0126B5A89B05C02F3FA1
:1005800019F00196A11DB11D3FBFBA2FA92F982FB9
:100590008827BC01CD01620F711D811D911D42E0B4
:1005A000660F771F881F991F4A95D1F70895CF923C
:1005B000DF92EF92FF920F931F93CF93DF93FC0193
:1005C0002081222309F457C0EC018185928501978F
:1005D00009F04EC02FB7F89460918C0170918D0195
:1005E00080918E0190918F012FBF0B891C892D89DD
:1005F0003E896B017C01C01AD10AE20AF30A098123
:100600001A812B813C81C016D106E206F30698F1CF
:100610006B8B7C8B8D8B9E8B8B859C85AD85BE85F6
:100620004D815E816F817885481B590B6A0B7B0B6E
:10063000413051056105710549F48F3FFFEF9F0778
:10064000AF07BF0719F01882188A1F860196A11DEF
:10065000B11D8B879C87AD87BE87E989FA89DF91B9
:10066000CF911F910F91FF90EF90DF90CF90099461
:100670000E94B202BACFDF91CF911F910F91FF90EC
:10068000EF90DF90CF900895CF93DF93FC01218905
:100690003289232BF1F0EC01818592850197E1F4F9
:1006A0002FB7F89480918C0190918D01A0918E01CB
:1006B000B0918F012FBF838B948BA58BB68B81E07C
:1006C00088831B861C861D861E8681E090E0988BA1
:1006D0008F87DF91CF9108950E94B2026B8B7C8B44
:1006E0008D8B9E8BECCFFC0124813581232B39F43B
:1006F00021E0FB018081882349F020E007C0808150
:1007000091810E94040F21E0892BB9F7822F08956F
:100710000F931F93CF93DF938C01EB01FC0180813A
:1007200091810097E1F06881798161157105A9F0E7
:10073000428153812C813D814217530770F00E9402
:100740000D0F8C819D81F801958384831D821C820D
:10075000DF91CF911F910F9108950E94AA0D88817A
:100760009981F801918380838A819B81938382831D
:100770008C819D8195838483198218821B821A82C1
:10078000E5CFCF93DF93EC0188819981009711F039
:100790000E94AA0D198218821D821C821B821A8255
:1007A000DF91CF910895FC0180819181009711F034
:1007B0000C94AA0D08950F931F93CF93DF93EC0130
:1007C00088819981009759F02A813B812617370744
:1007D00030F081E0DF91CF911F910F9108958B014F
:1007E0006F5F7F4F0E94330E009759F09983888383
:1007F0001B830A832C813D81232B59F7FC01108236
:10080000E8CF80E0E7CFEF92FF920F931F93CF9353
:10081000DF936115710541F480E0DF91CF911F9165
:100820000F91FF90EF90089541155105B1F07B01B4
:10083000EC010C811D81040F151FB8010E94DB0320
:10084000882351F3288139818C819D81B701820FE2
:10085000931F0E940D0F1D830C8381E0DECFCF9389
:10086000DF93EC01FB0101900020E9F73197AF0124
:10087000461B570B0E940304811103C0CE010E9446
:10088000C103CE01DF91CF910895CF93DF93EC01A7
:10089000FB0144815581608171810E9403048111B3
:1008A00003C0CE010E94C103CE01DF91CF91089514
:1008B000EF92FF920F931F93CF93DF93EC017B0195
:1008C0008A01BA010E94DB0381110BC0CE010E9494
:1008D000C103CE01DF91CF911F910F91FF90EF9057
:1008E00008951D830C83B701888199810E940D0FA3
:1008F000F0CFFB0101900020E9F73197AF01461BD3
:10090000570B0C9458040F931F93CF93DF93CDB7DD
:10091000DEB762970FB6F894DEBF0FBECDBF8C0175
:10092000CB01F80111821082138212821582148287
:100930004AE0BE016F5F7F4F0E94180CBE016F5FDF
:100940007F4FC8010E94790462960FB6F894DEBF0B
:100950000FBECDBFDF91CF911F910F910895FC0184
:10096000118210821382128215821482FB0101907F
:100970000020E9F73197AF01461B570B0C94580440
:10098000CF92DF92EF92FF920F931F93CF93DF935B
:100990006C017B018A014617570720F48F2D7A01DD
:1009A000062F182F6AE171E0C6010E94AF04C091C2
:1009B000A402D091A502EC16FD06F8F40C171D0751
:1009C00008F4E801E091A002F091A102EC0FFD1FF4
:1009D000108110826091A0027091A1026E0D7F1DA6
:1009E000C6016115710599F00E9479048091A002F9
:1009F0009091A102C80FD91F1883C601DF91CF9132
:100A00001F910F91FF90EF90DF90CF9008950E947B
:100A1000C103ECCF6F927F928F929F92AF92BF9261
:100A2000CF92DF92EF92FF920F931F93CF93DF93BA
:100A3000CDB7DEB768970FB6F894DEBF0FBECDBF57
:100A40005C017B018A0169013C0185E6681A710835
:100A500083E66816710440F4CB01C397C19720F474
:100A6000CA01C397C19740F067E371E0C6010E94D5
:100A70007303882309F458C090E080E00E94880046
:100A800067E371E08EE892E00E9479046091800152
:100A900070918101CE0143960E948304609182018E
:100AA00070918301CE010D960E94830460918401B0
:100AB00070918501CE0107960E9483046BE171E07D
:100AC000CE0101960E94AF04BE01695F7F4FCE0147
:100AD00001960E94450461E271E00E942F04BE016C
:100AE000635F7F4F0E94450469E271E00E942F041A
:100AF000BE016D5E7F4F0E94450460E371E00E947D
:100B00002F040E941B01CE0101960E94D303CE0147
:100B100007960E94D303CE010D960E94D303CE0107
:100B200043960E94D30341C0450183E3881A91088C
:100B300081E38816910458F4C701855691098336DC
:100B4000910528F4C801C397C19708F443C063E432
:100B500071E0C6010E94730381113CC081E38816D5
:100B6000910408F47BC060E571E0C6010E94730344
:100B7000811180C081E0A81AB10881E3A816B104F0
:100B800008F4BCC06CE571E0C6010E9473038111DA
:100B9000BFC083E66816710408F4FEC06AE671E01F
:100BA000C6010E947303811105C168960FB6F894BF
:100BB000DEBF0FBECDBFDF91CF911F910F91FF9090
:100BC000EF90DF90CF90BF90AF909F908F907F90ED
:100BD0006F90089584EB90E00E94880063E471E0D8
:100BE0008EE892E00E947904609180017091810109
:100BF000CE0143960E94830460918201709183012B
:100C0000CE010D960E94830460918401709185014C
:100C1000CE0107960E9483046BE171E0CE0101963C
:100C20000E94AF04BE01695F7F4FCE0101960E9412
:100C3000450461E271E00E942F04BE01635F7F4FB3
:100C40000E94450469E271E00E942F04BE016D5EBE
:100C50007F4F0E9445046CE371E051CFC701C397F9
:100C6000C19708F080CFC801855691098336910558
:100C700008F079CF88E790E00E94880060E571E095
:100C80008EE892E00E947904609180017091810168
:100C9000CE0143960E94830460918201709183018A
:100CA000CE010D960E9483046091840170918501AC
:100CB000CE0107960E9483046BE171E0CE0101969C
:100CC0000E94AF04BE01695F7F4FCE0101960E9472
:100CD000450461E271E00E942F04BE01635F7F4F13
:100CE0000E94450469E271E00E942F04BE016D5E1E
:100CF0007F4F0E94450469E471E001CFC70101976D
:100D0000C19708F03FCFC8010197C19708F03ACFCB
:100D10008CE390E00E9488006CE571E08EE892E040
:100D20000E9479046091800170918101CE01439607
:100D30000E9483046091820170918301CE010D961F
:100D40000E9483046091840170918501CE01079611
:100D50000E9483046BE171E0CE0101960E94AF0412
:100D6000BE01695F7F4FCE0101960E94450461E29A
:100D700071E00E942F04BE01635F7F4F0E94450413
:100D800069E271E00E942F04BE016D5E7F4F0E94F8
:100D9000450465E571E0B3CE85E6E81AF10883E61F
:100DA000E816F10408F0FACE0353110901331105D6
:100DB00008F0F4CE8AE590E00E9488006AE671E0CF
:100DC0008EE892E00E947904609180017091810127
:100DD000CE0143960E948304609182017091830149
:100DE000CE010D960E94830460918401709185016B
:100DF000CE0107960E9483046BE171E0CE0101965B
:100E00000E94AF04BE01695F7F4FCE0101960E9430
:100E1000450461E271E00E942F04BE01635F7F4FD1
:100E20000E94450469E271E00E942F04BE016D5EDC
:100E30007F4F0E94450463E671E061CECF92DF925E
:100E4000EF92FF920F931F93CF93DF9300D000D0C8
:100E500000D0CDB7DEB760E771E088E892E00E948D
:100E60007303882309F469C080E10E94A00297FD02
:100E700003966C01D594C794D594C794D0928501FC
:100E8000C09284018FE00E94A00297FD03967C012E
:100E9000F594E794F594E794F0928301E09282014F
:100EA0008EE00E94A00297FD03968C011595079590
:100EB00015950795109381010093800180917E0123
:100EC00090917F01C816D906C1F180917C01909163
:100ED0007D01E816F90689F180917A0190917B01F4
:100EE0000817190751F162E771E0CE0101960E94DF
:100EF000AF049E012F5F3F4FA801B701C6010E94BA
:100F00000A05CE0101960E94D3038091840190913D
:100F1000850190937F0180937E0180918201909161
:100F2000830190937D0180937C0180918001909159
:100F3000810190937B0180937A0126960FB6F894F5
:100F4000DEBF0FBECDBFDF91CF911F910F91FF90FC
:100F5000EF90DF90CF900895EF92FF920F931F9341
:100F6000CF93DF93CDB7DEB728970FB6F894DEBFE7
:100F70000FBECDBF80E10E94A00297FD039695951C
:100F800087959595879590938501809384018FE04F
:100F90000E94A00297FD0396959587959595879554
:100FA00090938301809382018EE00E94A00297FDBE
:100FB0000396959587959595879590938101809354
:100FC00080016AE171E0CE0101960E94AF040E94A7
:100FD000570197FD0CC08F83188641E050E0BE0199
:100FE000695F7F4FCE0101960E940304F0CFBE01DE
:100FF0006F5F7F4F80EA92E00E948803CE010196E6
:101000000E94D3038091A4029091A502892B71F0D4
:10101000E090A002F090A1026AE370E0C7010E9494
:10102000F90E8C010E191F09892B11F40FEF1FEF18
:101030001093790100937801A80170E060E0CE017F
:1010400001960E94C004BE016F5F7F4F8AE992E063
:101050000E948803CE0101960E94D30380919A02D8
:1010600090919B02009709F449C00E94F10B7B010B
:1010700070937701609376014091A4025091A5028C
:10108000B8016F5F7F4FCE0101960E94C004BE0180
:101090006F5F7F4F84E992E00E948803CE01019642
:1010A0000E94D30382E0E816F104B9F083E0E81669
:1010B000F10441F1EA94EF28A1F464E771E084E9D6
:1010C00092E00E94730364E771E0811102C060E75F
:1010D00071E088E892E00E9479048EE892E00E9434
:1010E0001B0128960FB6F894DEBF0FBECDBFDF916F
:1010F000CF911F910F91FF90EF90089560E070E005
:10110000CB01B5CF60919402709195021A82198239
:101110001C821B821E821D826115710541F0409167
:10112000980250919902CE0101960E9458049E01A6
:101130002F5F3F4F4FEF5FEF6FEF7FEF8FEF9FEF2F
:101140000E940A05CE0101960E94D303CACF1F92C6
:101150000F920FB60F9211242F933F934F935F93EB
:101160006F937F938F939F93AF93BF93EF93FF936F
:1011700080E991E00E94C501FF91EF91BF91AF918D
:101180009F918F917F916F915F914F913F912F919F
:101190000F900FBE0F901F9018951F920F920FB6D1
:1011A0000F9211242F938F939F93EF93FF93E091CE
:1011B000A001F091A1018081E091A601F091A70129
:1011C00082FD1BC090818091A9018F5F8F73209158
:1011D000AA01821741F0E091A901F0E0E057FE4F2B
:1011E000958F8093A901FF91EF919F918F912F91FE
:1011F0000F900FBE0F901F9018958081F4CF1F9213
:101200000F920FB60F9211242F933F938F939F93BA
:10121000AF93BF9380918C0190918D01A0918E012D
:10122000B0918F013091870123E0230F2D3758F5BE
:101230000196A11DB11D2093870180938C0190938D
:101240008D01A0938E01B0938F01809188019091C0
:101250008901A0918A01B0918B010196A11DB11D58
:101260008093880190938901A0938A01B0938B01A8
:10127000BF91AF919F918F913F912F910F900FBE92
:101280000F901F90189526E8230F0296A11DB11DFF
:10129000D2CF1F920F920FB60F9211242F933F932C
:1012A0004F935F936F937F938F939F93AF93BF936E
:1012B000CF93DF93EF93FF9380918601C09151020A
:1012C000D0E087FF24C010928500109284008091A6
:1012D00086018F5F8093860180918601082E000C25
:1012E000990B8C179D0724F4809186018C30C4F1F2
:1012F0008091840090918500049680349C4908F484
:101300007AC08091840090918500049676C0809187
:101310008601082E000C990B8C179D07C4F6E091EE
:1013200086018E2FEE0F990BFC01EE0FFF1FE80FC9
:10133000F91FE35DFD4F808186FFC9CFE0918601F3
:101340008E2FEE0F990BFC01EE0FFF1FE80FF91F18
:10135000E35DFD4F808160E08F730E945402B7CF40
:101360002091840030918500E09186018E2FEE0F50
:10137000990BFC01EE0FFF1FE80FF91FE35DFD4F16
:1013800081819281820F931F9093890080938800BE
:10139000E09186018E2FEE0F990BFC01EE0FFF1FDF
:1013A000E80FF91FE35DFD4F808186FF11C0E091DA
:1013B00086018E2FEE0F990BFC01EE0FFF1FE80F39
:1013C000F91FE35DFD4F808161E08F730E9454023D
:1013D000FF91EF91DF91CF91BF91AF919F918F914D
:1013E0007F916F915F914F913F912F910F900FBE21
:1013F0000F901F90189580E49CE99093890080934A
:1014000088008FEF80938601E3CF109293011092B2
:10141000920188EE93E0A0E0B0E080939401909375
:101420009501A0939601B09397018AE091E0909383
:1014300091018093900185EC90E090939D018093C1
:101440009C0184EC90E090939F0180939E0180EC3E
:1014500090E09093A1018093A00181EC90E09093A3
:10146000A3018093A20182EC90E09093A501809368
:10147000A40186EC90E09093A7018093A6011092BE
:10148000A9011092AA011092AB011092AC018091B7
:1014900051028C3008F08DC091E0980F909351026A
:1014A0008093A60290E0FC01EE0FFF1FE80FF91FEA
:1014B000E35DFD4F88EB9BE0928381836AE171E0FD
:1014C00080EA92E00E94AF046AE171E08AE992E06A
:1014D0000E94AF046AE171E084E992E00E94AF04E7
:1014E0006AE171E08EE892E00E94AF0464E771E087
:1014F00088E892E00E94AF04109277021092760280
:1015000080E492E4AFE0B0E080936E0290936F02CB
:10151000A0937002B0937102109272021092730243
:1015200010927402109275022CEA37E030937F0219
:1015300020937E0210926D0210928002109281021E
:101540001092820210928302109278021092790215
:1015500010927A0210927B0210925C0210925B024F
:101560008093530290935402A0935502B093560275
:1015700010925702109258021092590210925A0279
:101580008EE197E09093640280936302109252027E
:101590001092650210926602109267021092680221
:1015A00010925D0210925E0210925F021092600231
:1015B00008958FEF8093A60281CF789484B58260DE
:1015C00084BD84B5816084BD85B5826085BD85B5E7
:1015D000816085BD80916E00816080936E00109265
:1015E00081008091810082608093810080918100E0
:1015F0008160809381008091800081608093800071
:101600008091B10084608093B1008091B0008160CE
:101610008093B00080917A00846080937A008091FA
:101620007A00826080937A0080917A008160809352
:101630007A0080917A00806880937A001092C100CD
:10164000E091A001F091A10182E08083E0919C01F2
:10165000F0919D011082E0919E01F0919F018FEC2D
:1016600080831092A801E091A401F091A50186E089
:101670008083E091A201F091A30180818061808349
:10168000E091A201F091A301808188608083E091C4
:10169000A201F091A301808180688083E091A20182
:1016A000F091A30180818F7D80838091A6028C3090
:1016B00008F068C0E7EAF0E02491E3E9F0E0849103
:1016C000882399F090E0880F991FFC01EA57FF4F9B
:1016D000A591B491FC01E458FF4F859194918FB787
:1016E000F894EC91E22BEC938FBF8091A602282F07
:1016F00030E0F901EE0FFF1FE20FF31FE35DFD4F36
:101700009081907C936090831092A7021092A8021F
:101710002CE0622F0E94FC0C829FB001112430E06B
:1017200020E0AB01420F531FFA01EE0FFF1FE40F41
:10173000F51FE35DFD4F908196FD16C02F5F3F4F73
:101740002C30310571F781110FC01092800082E0BA
:10175000809381001092850010928400B19A80914C
:101760006F00826080936F00E091A6028E2F90E060
:10177000FC01EE0FFF1FE80FF91FE35DFD4F8081B5
:10178000806480838DE692E00E94440382E592E0CB
:101790000E944403C0E0D0E08DE692E00E94D702B0
:1017A00082E592E00E94D7022097B1F30E94B10136
:1017B000882391F30E940000EFCF88E892E00E9416
:1017C000D3038EE892E00E94D30384E992E00E9462
:1017D000D3038AE992E00E94D30380EA92E00C945A
:1017E000D3031F93FC0199278827BC01E89411912A
:1017F0001032E9F3193010F01E30C8F31B3251F0EB
:101800001D3249F4689406C00E94230C610F711DBB
:10181000811D911D119110531A30B0F33EF4909533
:101820008095709561957F4F8F4F9F4F1F910895C1
:10183000BB274A3031F4992322F4BDE2909581957B
:101840009F4F0C94390C592F482F372F262F660F96
:10185000771F881F991F660F771F881F991F620FB8
:10186000731F841F951F660F771F881F991F089588
:10187000BB27FB015527AA27880F991FAA1FA4176A
:1018800010F0A41B83955051B9F7A05DAA3308F05E
:10189000A95DA193009779F7B111B1931192CB0192
:1018A0000C94520CDC01FC01672F71917723E1F756
:1018B000329704C07C916D9370836291AE17BF071D
:1018C000C8F30895052E97FB1EF400940E94790C2E
:1018D00057FD07D00E94CB0C07FC03D04EF40C94AC
:1018E000790C50954095309521953F4F4F4F5F4F64
:1018F000089590958095709561957F4F8F4F9F4F7C
:1019000008950E94ED0CA59F900DB49F900DA49F8B
:10191000800D911D11240895B7FF0C94810C0E9435
:10192000810C821B930B08952F923F924F925F92EE
:101930006F927F928F929F92AF92BF92CF92DF92DF
:10194000EF92FF920F931F93CF93DF93CDB7DEB744
:10195000CA1BDB0B0FB6F894DEBF0FBECDBF0994D8
:101960002A88398848885F846E847D848C849B842F
:10197000AA84B984C884DF80EE80FD800C811B813D
:10198000AA81B981CE0FD11D0FB6F894DEBF0FBE6C
:10199000CDBFED010895A1E21A2EAA1BBB1BFD01CC
:1019A0000DC0AA1FBB1FEE1FFF1FA217B307E4073E
:1019B000F50720F0A21BB30BE40BF50B661F771F96
:1019C000881F991F1A9469F7609570958095909576
:1019D0009B01AC01BD01CF010895A29FB001B39F4F
:1019E000C001A39F700D811D1124911DB29F700D28
:1019F000811D1124911D0895991B79E004C0991F40
:101A0000961708F0961B881F7A95C9F78095089558
:101A1000EE0FFF1F0590F491E02D09940F931F9393
:101A2000CF93DF938230910510F482E090E0E09153
:101A3000AB02F091AC0230E020E0B0E0A0E03097E3
:101A400099F42115310509F44AC0281B390B2430BB
:101A50003105D8F58A819B816115710589F1FB01FA
:101A600093838283FE0111C04081518102811381E1
:101A700048175907E0F04817590799F4109761F093
:101A800012960C93129713961C933296CF01DF9106
:101A9000CF911F910F9108950093AB021093AC0268
:101AA000F4CF2115310551F04217530738F0A90141
:101AB000DB019A01BD01DF01F801C1CFEF01F9CFD0
:101AC0009093AC028093AB02CDCFFE01E20FF31FE7
:101AD000819391932250310939832883D7CF209164
:101AE000A9023091AA02232B41F4209102013091E6
:101AF00003013093AA022093A902209100013091A2
:101B000001012115310541F42DB73EB74091040183
:101B100050910501241B350BE091A902F091AA0216
:101B2000E217F307A0F42E1B3F0B2817390778F0B4
:101B3000AC014E5F5F4F2417350748F04E0F5F1F13
:101B40005093AA024093A902819391939FCFF0E012
:101B5000E0E09CCFCF93DF930097E9F0FC01329750
:101B600013821282A091AB02B091AC02ED0130E081
:101B700020E01097A1F420813181820F931F2091E2
:101B8000A9023091AA022817390709F061C0F09321
:101B9000AA02E093A902DF91CF910895EA01CE173E
:101BA000DF07E8F54A815B819E0141155105B1F7D8
:101BB000E901FB83EA8349915991C40FD51FEC17C2
:101BC000FD0761F4808191810296840F951FE901E0
:101BD00099838883828193819B838A83F0E0E0E00C
:101BE00012968D919C9113970097B9F52D913C9188
:101BF0001197CD010296820F931F2091A902309177
:101C0000AA022817390739F6309751F51092AC021D
:101C10001092AB02B093AA02A093A902BCCFD383C7
:101C2000C28340815181840F951FC817D90761F481
:101C30004E5F5F4F88819981480F591F51834083C0
:101C40008A819B81938382832115310509F0B0CF6E
:101C5000F093AC02E093AB029ECFFD01DC01C0CF5C
:101C600013821282D7CFB0E0A0E0E9E3FEE00C944B
:101C7000960C8C01009751F4CB010E940E0D8C0143
:101C8000C801CDB7DEB7E0E10C94B20CFC01E60F61
:101C9000F71F9C0122503109E217F30708F49DC099
:101CA000D901CD91DC911197C617D70798F0C530AF
:101CB000D10530F3CE0104978617970708F3C61BAA
:101CC000D70B2297C193D1936D937C93CF010E9440
:101CD000AA0DD6CF5B01AC1ABD0A4C018C0E9D1E1D
:101CE000A091AB02B091AC02512C412CF12CE12C13
:101CF000109731F58091A9029091AA028815990553
:101D000009F05CC04616570608F058C080910001E3
:101D100090910101009741F48DB79EB74091040165
:101D200050910501841B950BE817F90708F055C081
:101D3000F093AA02E093A902F90171836083A0CF16
:101D40008D919C91119712966C90129713967C909E
:101D50001397A815B90559F56C0142E0C40ED11CC2
:101D6000CA14DB0420F1AC014A195B09DA011296AE
:101D7000159780F06282738251834083D9016D93FD
:101D80007C93E114F10471F0D7011396FC93EE9368
:101D9000129776CF22968C0F9D1FF9019183808335
:101DA000F301EFCFF093AC02E093AB0269CF48169A
:101DB000590608F42C017D01D3019ACFCB010E9472
:101DC0000E0D7C01009749F0AE01B8010E94F00EA3
:101DD000C8010E94AA0D870153CF10E000E050CF48
:101DE000FB01DC0102C001900D9241505040D8F738
:101DF0000895FC018191861721F08823D9F799274E
:101E000008953197CF010895FB01DC018D91019078
:101E100080190110D9F3990B0895FB01DC010190A1
:101E20000D920020E1F7089510E0CDE5D0E004C068
:101E3000FE010E94080D2196CE35D107C9F7F8940E
:021E4000FFCFD2
:101E42000000AD02800000000000E701EE00340156
:101E52003402A501430197010D0A00526F6A6F3ADD
:101E6200007C56657264653A007C417A756C3A0072
:101E72007C636F6C6F723A726F6A6F007C636F6C17
:101E82006F723A7665726465007C636F6C6F723A4A
:101E9200617A756C007C636F6C6F723A626C616E12
:101EA200636F007C636F6C6F723A6E6172616E6A0F
:061EB200610030006D002C
:00000001FF
